:020000040800F2
:1000000000060220010200080302000803020008A3
:1000100003020008030200080302000803020008AC
:100020000302000803020008030200082938000840
:10003000030200080302000803020008030200088C
:10004000030200080302000803020008030200087C
:100050000302000803020008CD3A0008F53A000840
:100060001D3B0008453B00086D3B000803020008EB
:10007000030200080302000803020008030200084C
:10008000030200080302000803020008030200083C
:10009000030200080302000803020008953B000861
:1000A000030200080302000803020008030200081C
:1000B000913C000803020008030200080302000844
:1000C00003020008030200080302000803020008FC
:1000D0000302000803020008693C0008030200084C
:1000E000F93B0008030200080302000803020008AD
:1000F00003020008030200080302000803020008CC
:1001000003020008030200080302000803020008BB
:1001100003020008030200080302000803020008AB
:10012000030200080302000803020008030200089B
:10013000030200080302000803020008030200088B
:10014000030200080302000803020008A12F0008B0
:10015000030200080302000803020008030200086B
:10016000030200080302000803020008030200085B
:10017000030200080302000803020008030200084B
:1001800003020008030200087D3C00080302000887
:10019000030200080302000803020008030200082B
:1001A000030200080302000803020008030200081B
:1001B000030200080302000803020008030200080B
:1001C00003020008030200080302000803020008FB
:1001D00003020008030200080302000803020008EB
:1001E00003020008030200080302000803020008DB
:1001F00003020008030200080302000803020008CB
:1002000002E000F000F8FEE772B6374880F3088895
:10021000364880F3098836483649086040F20000C5
:10022000CCF200004EF63471CEF200010860BFF34C
:100230004F8FBFF36F8F40F20000C0F2F0004EF618
:100240008851CEF200010860BFF34F8FBFF36F8F6C
:100250004FF00000E1EE100A4EF63C71CEF20001C4
:100260000860062080F31488BFF36F8F02F0F6FA5F
:1002700003F06CFA4FF055301F491B4A91423CBFC6
:1002800041F8040BFAE71D49184A91423CBF41F876
:10029000040BFAE71A491B4A1B4B9A423EBF51F81E
:1002A000040B42F8040BF8E700201849184A914261
:1002B0003CBF41F8040BFAE702F00EFB03F0A6FA8C
:1002C000144C154DAC4203DA54F8041B8847F9E787
:1002D00000F042F8114C124DAC4203DA54F8041B02
:1002E0008847F9E702F0F6BA000602200022022051
:1002F0000000000808ED00E00000022000060220D7
:10030000A840000800220220682202206822022061
:10031000A0370220000200080002000800020008C6
:10032000000200082DE9F04F2DED108AC1F80CD025
:10033000D0F80CD0BDEC108ABDE8F08F002383F319
:1003400011882846A047002001F036FEFEE701F0A4
:10035000C5FD00DFFEE7000038B500F01FFC02F02D
:100360003DFA054602F070FA0446C0B90E4B9D42B4
:1003700017D001339D4241F2883512BF0446002553
:100380000124002002F034FA0CB100F075F800F0FE
:100390007FFD284600F0FAF800F06EF8F9E7002536
:1003A000EFE70546EDE700BF010007B008B500F034
:1003B000C1FBA0F120035842584108BD07B541F2E6
:1003C0001203022101A8ADF8043000F0D1FB03B004
:1003D0005DF804FB38B5302383F3118817480368B0
:1003E0000BB101F0B5FE0023154A4FF47A711348A2
:1003F00001F0A4FE002383F31188124C236813B18B
:100400002368013B2360636813B16368013B636049
:100410000D4D2B7833B963687BB9022000F09AFC4C
:10042000322363602B78032B07D163682BB902203A
:1004300000F090FC4FF47A73636038BD68220220AC
:10044000D50300088823022080220220084B187060
:1004500003280CD8DFE800F008050208022000F0AD
:100460006BBC022000F058BC024B00225A6070475F
:100470008022022088230220F8B53F4B3F4A1C46C9
:100480001968013177D004339342F9D16268A242EE
:1004900071D33B4B9B6803F1006303F500439A4221
:1004A00069D2002000F094FB0220FFF7CFFF354B0C
:1004B00000211A6C19641A6E19661A6E5A6C596406
:1004C0005A6E59665A6E5A6942F080025A615A69E8
:1004D00022F080025A615A691A6942F000521A6188
:1004E0001A6922F000521A611B6972B64FF0E023BC
:1004F000C3F8084DD4E90004BFF34F8FBFF36F8FEB
:10050000214AC2F88410BFF34F8F536923F480331C
:100510005361BFF34F8FD2F8803043F6E076C3F3D8
:10052000C905C3F34E335B0103EA060C29464CEAC6
:1005300081770139C2F87472F9D2203B13F1200F90
:10054000F2D1BFF34F8FBFF36F8FBFF34F8FBFF366
:100550006F8F536923F4003353610023C2F8503284
:10056000BFF34F8FBFF36F8F302383F3118885461E
:1005700080F308882047F8BD00800008208000082C
:10058000002202200038024000ED00E02DE9F04F8B
:1005900093B0B44B2022FF2100900AA89D6800F080
:1005A00021FCB14A1378A3B90121B048117003604E
:1005B000302383F3118803680BB101F0C9FD0023D8
:1005C000AB4A4FF47A71A94801F0B8FD002383F3D8
:1005D0001188009B13B1A74B009A1A60A64A1378A2
:1005E000032B03D000231370A24A53604FF0000A7C
:1005F000009CD3465646D146012000F09DFB24B115
:100600009C4B1B68002B00F02682002000F092FA21
:100610000390039B002BF2DB012000F07DFB039B8A
:10062000213B1F2BE8D801A252F823F0AD060008A9
:10063000D506000869070008F9050008F905000853
:10064000F9050008FB070008CB090008E5080008C9
:10065000470900086F09000895090008F905000816
:10066000A7090008F9050008190A00084D07000845
:10067000F90500085D0A0008B90600084D070008E2
:10068000F905000847090008F9050008F905000800
:10069000F9050008F9050008F9050008F905000842
:1006A000F9050008F9050008690700080220FFF7AE
:1006B0007DFE002840F0F981009B022105A8BAF1D7
:1006C000000F08BF1C4641F21233ADF8143000F0A1
:1006D0004FFA91E74FF47A7000F02CFA071EEBDB2B
:1006E0000220FFF763FE0028E6D0013F052F00F24D
:1006F000DE81DFE807F0030A0D101336052304211D
:1007000005A8059300F034FA17E004215548F9E7ED
:1007100004215A48F6E704215948F3E74FF01C0832
:10072000404608F1040800F055FA0421059005A898
:1007300000F01EFAB8F12C0FF2D101204FF00009A1
:1007400000FA07F747EA0B0B5FFA8BFB00F096FB0A
:1007500026B10BF00B030B2B08BF0024FFF72EFE76
:100760004AE704214748CDE7002EA5D00BF00B0344
:100770000B2BA1D10220FFF719FE074600289BD0C2
:100780000120002600F024FA0220FFF75FFE1FFA86
:1007900086F8404600F02CFA0446B0B10399404672
:1007A0000136A1F140025142514100F031FA0028D6
:1007B000EDD1BA46044641F21213022105A83E4685
:1007C000ADF8143000F0D4F916E725460120FFF704
:1007D0003DFE244B9B68AB4207D9284600F0FAF94E
:1007E000013040F067810435F3E70025224BBA461B
:1007F0003E461D701F4B5D60A8E7002E3FF45CAFC6
:100800000BF00B030B2B7FF457AF0220FFF71EFEFC
:10081000322000F08FF9B0F10008FFF64DAF18F06C
:1008200003077FF449AF0F4A08EB05039268934230
:100830003FF642AFB8F5807F3FF73EAF124BB84569
:10084000019323DD4FF47A7000F074F90390039A5A
:10085000002AFFF631AF039A0137019B03F8012B01
:10086000EDE700BF0022022084230220682202203C
:10087000D5030008882302208022022004220220BF
:10088000082202200C22022084220220C820FFF726
:100890008DFD074600283FF40FAF1F2D11D8C5F17D
:1008A00020020AAB25F0030084494245184428BFC2
:1008B0004246019200F070FA019AFF217F4800F051
:1008C00091FA4FEAA803C8F387027C4928460193AE
:1008D00000F090FA064600283FF46DAF019B05EB4F
:1008E000830533E70220FFF761FD00283FF4E4AE03
:1008F00000F0BAF900283FF4DFAE0027B846704B8D
:100900009B68BB4218D91F2F11D80A9B01330ED008
:1009100027F0030312AA134453F8203C05934046E2
:10092000042205A9043700F011FB8046E7E73846AA
:1009300000F050F90590F2E7CDF81480042105A8E5
:1009400000F016F902E70023642104A8049300F0E4
:1009500005F900287FF4B0AE0220FFF727FD00283C
:100960003FF4AAAE049800F067F90590E6E700238B
:10097000642104A8049300F0F1F800287FF49CAEF1
:100980000220FFF713FD00283FF496AE049800F014
:1009900063F9EAE70220FFF709FD00283FF48CAE77
:1009A00000F072F9E1E70220FFF700FD00283FF4B4
:1009B00083AE05A9142000F06DF9074604210490C8
:1009C00004A800F0D5F83946B9E7322000F0B2F8B3
:1009D000071EFFF671AEBB077FF46EAE384A07EB19
:1009E0000903926893423FF667AE0220FFF7DEFCF0
:1009F00000283FF461AE27F003074F44B9453FF4A8
:100A0000A5AE484609F1040900F0E4F80421059078
:100A100005A800F0ADF8F1E74FF47A70FFF7C6FCD7
:100A200000283FF449AE00F01FF9002844D00A9B8B
:100A300001330BD008220AA9002000F0DBF90028BE
:100A40003AD02022FF210AA800F0CCF9FFF7B6FC2B
:100A50001C4801F0B7FA13B0BDE8F08F002E3FF448
:100A60002BAE0BF00B030B2B7FF426AE002364217F
:100A700005A8059300F072F8074600287FF41CAE25
:100A80000220FFF793FC804600283FF415AEFFF7E5
:100A900095FC41F2883001F095FA059800F034FA9F
:100AA00046463C4600F0EAF9A6E506464EE64FF01B
:100AB000000901E6BA467EE637467CE6842202203B
:100AC00000220220A08601002DE9F84F4FF47A732E
:100AD00006460D46002402FB03F7DFF85080DFF8DE
:100AE000509098F900305FFA84FA5A1C01D0A34262
:100AF00010D159F824002A4631460368D3F820B0B3
:100B00003B46D847854205D1074B012083F800A01A
:100B1000BDE8F88F0134032CE3D14FF4FA7001F0F3
:100B200051FA0020F4E700BFD42302201022022053
:100B300014220220002307B5024601210DF107000F
:100B40008DF80730FFF7C0FF20B19DF8070003B014
:100B50005DF804FB4FF0FF30F9E700000A4604217E
:100B600008B5FFF7B1FF80F00100C0B2404208BDF8
:100B7000074B0A4630B41978064B53F8214001461A
:100B800023682046DD69044BAC4630BC604700BF9B
:100B9000D423022014220220A086010070B50A4E40
:100BA00000240A4D01F020FD3080286833888342FC
:100BB00008D901F013FD2B6804440133B4F5004F4C
:100BC0002B60F2D370BD00BFD623022090230220F9
:100BD00001F0B8BD00F1006000F50040006870470A
:100BE00000F10060920000F5004001F043BD0000FC
:100BF000054B1A68054B1B889B1A834202D9104487
:100C000001F0ECBC0020704790230220D623022084
:100C100038B50446074D29B128682044BDE838405E
:100C200001F0FCBC2868204401F0E0FC0028F3D06F
:100C300038BD00BF9023022010F0030309D1B0F5A6
:100C4000846F04D200F10050A0F5712003681846AB
:100C500070470023FBE7000000F10050A0F5712071
:100C6000D0F8200470470000064991F8243033B1D1
:100C700000230822086A81F82430FFF7B1BF012061
:100C8000704700BF94230220014B1868704700BFD3
:100C9000002004E01E4B0138F0B51D680A1803233C
:100CA0001C482E0CC5F30B0435460788A7420BD110
:100CB00044680B46013C934218461BD214F9010FBD
:100CC00048B103F8010BF6E7013B00F10800ECD155
:100CD00091420ED20B4618462C24B6F5805F00F8E0
:100CE000014B0AD1824202D94122981C5A70401A03
:100CF000F0BD0846B6F5805FF9D041F201039D4290
:100D0000F5D18242F3D95A2300F8013BEFE700BF47
:100D1000002004E020220220022804D1054B4FF4D9
:100D200080029A6170470128FCD1024B4FF4000207
:100D3000F7E700BF00080240022803D1044B40221D
:100D40009A6170470128FCD1014B8022F8E700BF6F
:100D500000080240022805D1064A536983F0400387
:100D6000536170470128FCD1024A536983F0800324
:100D7000F6E700BF0008024070B504464FF47A76EB
:100D80004CB1412C254628BF412506FB05F0641BCC
:100D900001F018F9F4E770BD002310B5934203D0B9
:100DA000CC5CC4540133F9E710BD0000013810B524
:100DB00010F9013F3BB191F900409C4203D11AB1B7
:100DC0000131013AF4E71AB191F90020981A10BDE7
:100DD0001046FCE703460246D01A12F9011B00290F
:100DE000FAD1704702440346934202D003F8011B34
:100DF000FAE770472DE9F8431F4D14460746884629
:100E000095F8242052BBDFF870909CB395F82430FD
:100E10002BB92022FF2148462F62FFF7E3FF95F808
:100E200024004146C0F1080205EB8000A24228BF21
:100E30002246D6B29200FFF7AFFF95F82430A41BEC
:100E400017441E449044E4B2F6B2082E85F824609C
:100E5000DBD1FFF709FF0028D7D108E02B6A03EBAD
:100E600082038342CFD0FFF7FFFE0028CBD10020C2
:100E7000BDE8F8830120FBE794230220024B1A7897
:100E8000024B1A70704700BFD423022010220220A8
:100E9000F8B5184C184800F0F3FB2146164800F04E
:100EA0001BFC24684FF47A70144EE26E144DD2F895
:100EB0000438114F43F00203C2F80438FFF75CFF17
:100EC0002046104900F010FDE26E0324D2F80438E9
:100ED00023F00203C2F804384FF4E133336055F8CD
:100EE000040BB84202D0314600F02AFB013CF6D197
:100EF000F8BD00BF603E0008202B0220BC2302206A
:100F000014220220683E00080C4B70B50C4D0446BC
:100F10001E780C4B55F826209A420DD00A4B002122
:100F200018221846FFF75EFF0460014655F82600B8
:100F3000BDE8704000F004BB70BD00BFD4230220A8
:100F400014220220202B0220BC23022030B50A44A8
:100F5000084D91420DD011F8013B5840082340F351
:100F60000004013B2C4013F0FF0384EA5000F6D14B
:100F7000EFE730BD2083B8ED02684368114301609C
:100F800003B1184770470000024A136843F0C003DA
:100F90001360704700440040024A136843F0C003E6
:100FA000136070470078004037B51A4C1A4D204640
:100FB00000F0BAFA04F11400009400234FF4807298
:100FC000164900F077F94FF48072154904F13800A2
:100FD0000094144B00F0F0F9134BC4E91735134C8F
:100FE000204600F0A1FA04F1140000234FF48072AF
:100FF0000F49009400F05EF90E4B4FF480720E49D9
:1010000004F13800009400F0D7F90C4BC4E917350F
:1010100003B030BDD823022080F93703B02402206A
:10102000B0260220890F000800440040442402201A
:10103000B0250220990F0008B02702200078004058
:10104000037C30B5274C002918BF0C46012B0CD16E
:10105000254B984236D1254B1A6C42F400321A6463
:101060001A6E42F400321A661B6E2268036EC16D5E
:1010700003EB52038466B3FBF2F36268150442BFCC
:1010800023F0070503F0070343EA4503CB60A36899
:1010900043F040034B60E36843F001038B6042F48C
:1010A000967343F001030B604FF0FF330B62510561
:1010B00005D512F0102211D0B2F1805F10D080F867
:1010C000643030BD0A4B9842CFD1084B1A6C42F0C5
:1010D00080421A641A6E42F08042C4E77F23EEE732
:1010E0003F23ECE7743D0008D8230220003802407B
:1010F000442402202DE9F047C66D05463768F4699F
:10110000210734621AD014F0080118BF4FF480711F
:10111000E20748BF41F02001A3074FF0300348BF6A
:1011200041F04001600748BF41F0800183F311881E
:10113000281DFFF721FF002383F31188E2050AD55C
:10114000302383F311884FF48061281DFFF714FFCB
:10115000002383F311884FF030094FF0000A14F098
:10116000200838D13B0616D54FF0300905F1380A72
:10117000200610D589F31188504600F051F9002857
:1011800036DA0821281DFFF7F7FE27F080033360C9
:10119000002383F31188790614D5620612D5302313
:1011A00083F31188D5E913239A4208D12B6C33B10C
:1011B00027F040071021281DFFF7DEFE37600023CF
:1011C00083F31188E30618D5AA6E1369ABB1506991
:1011D000BDE8F047184789F31188736A284695F8E7
:1011E0006410194000F0BAF98AF31188F469B6E77F
:1011F000B06288F31188F469BAE7BDE8F0870000AF
:10120000F8B51546826804460B46AA4200D28568A6
:10121000A1692669761AB5420BD218462A46FFF70D
:10122000BBFDA3692B44A3612846A3685B1BA36095
:10123000F8BD0CD9AF1B18463246FFF7ADFD3A4654
:10124000E1683044FFF7A8FDE3683B44EBE718464C
:101250002A46FFF7A1FDE368E5E7000083689342B3
:10126000F7B50446154600D28568D4E90460361AFD
:10127000B5420BD22A46FFF78FFD63692B446361A9
:101280002846A3685B1BA36003B0F0BD0DD93246AE
:10129000AF1B0191FFF780FD01993A46E0683144A8
:1012A000FFF77AFDE3683B44E9E72A46FFF774FD60
:1012B000E368E4E710B50A440024C361029B84603C
:1012C000C16002610362C0E90000C0E9051110BD00
:1012D00008B5D0E90532934201D1826882B98268AB
:1012E000013282605A1C426119700021D0E9043237
:1012F0009A4224BFC368436100F080FE002008BD0D
:101300004FF0FF30FBE7000070B5302304460E4677
:1013100083F31188A568A5B1A368A269013BA36006
:10132000531CA36115782269934224BFE368A3612B
:10133000E3690BB120469847002383F311882846C0
:1013400007E03146204600F049FE0028E2DA85F346
:10135000118870BD2DE9F74F04460E461746984692
:10136000D0F81C904FF0300A8AF311884FF0000B30
:10137000154665B12A4631462046FFF741FF034630
:1013800060B94146204600F029FE0028F1D0002334
:1013900083F31188781B03B0BDE8F08FB9F1000F1B
:1013A00003D001902046C847019B8BF31188ED1AAA
:1013B0001E448AF31188DCE7C160C361009B826030
:1013C0000362C0E905111144C0E9000001617047E2
:1013D000F8B504460D461646302383F31188A768F6
:1013E000A7B1A368013BA36063695A1C62611D70C9
:1013F000D4E904329A4224BFE3686361E3690BB124
:1014000020469847002080F3118807E031462046A7
:1014100000F0E4FD0028E2DA87F31188F8BD00004F
:10142000D0E9052310B59A4201D182687AB9826861
:101430000021013282605A1C82611C7803699A4241
:1014400024BFC368836100F0D9FD204610BD4FF072
:10145000FF30FBE72DE9F74F04460E461746984646
:10146000D0F81C904FF0300A8AF311884FF0000B2F
:10147000154665B12A4631462046FFF7EFFE034682
:1014800060B94146204600F0A9FD0028F1D00023B4
:1014900083F31188781B03B0BDE8F08FB9F1000F1A
:1014A00003D001902046C847019B8BF31188ED1AA9
:1014B0001E448AF31188DCE7026843681143016027
:1014C00003B11847704700001430FFF743BF000016
:1014D0004FF0FF331430FFF73DBF00003830FFF707
:1014E000B9BF00004FF0FF333830FFF7B3BF000043
:1014F0001430FFF709BF00004FF0FF311430FFF741
:1015000003BF00003830FFF763BF00004FF0FF3229
:101510003830FFF75DBF0000012914BF6FF01300E2
:1015200000207047FFF740BD044B03600023436079
:10153000C0E9023301230374704700BF8C3D0008EB
:1015400010B53023044683F31188FFF779FD022399
:101550000020237480F3118810BD000038B5C369E2
:1015600004460D461BB904210844FFF7A5FF294690
:1015700004F11400FFF7ACFE002806DA201D4FF43A
:101580000061BDE83840FFF797BF38BD0268436887
:101590001143016003B118477047000013B5446B55
:1015A000D4F8A4381A681178042915D1217C0229AD
:1015B00012D11979012312898B4013420CD101A950
:1015C00004F14C0001F07EFFD4F8A4480246019BD0
:1015D0002179206800F0D6F902B010BD143001F076
:1015E00001BF00004FF0FF33143001F0FBBE0000DC
:1015F0004C3001F0D3BF00004FF0FF334C3001F00E
:10160000CDBF0000143001F0CFBE00004FF0FF311D
:10161000143001F0C9BE00004C3001F09FBF000043
:101620004FF0FF324C3001F099BF000000207047AE
:10163000D0F8A4381A6810B511780446042917D1D7
:10164000017C022914D15979012352898B4013421C
:101650000ED1143001F062FE024648B1D4F8A4481D
:101660004FF4807361792068BDE8104000F078B9CC
:1016700010BD0000406BFFF7DBBF000070470000AB
:101680007FB5124B01250426044603600023057430
:1016900000F1840243602946C0E902330C4B0290FA
:1016A000143001934FF48073009601F013FE094B40
:1016B00004F29442294604F14C000294CDE90063FF
:1016C0004FF4807301F0DAFE04B070BDB43D000841
:1016D000751600089D1500080B68302282F31188EA
:1016E0000A7903EB820210624A790D3243F8220034
:1016F0008A7912B103EB820318620223C0F8A4189E
:101700000374002080F311887047000038B5037F10
:10171000044613B190F85430ABB90125201D0221C5
:10172000FFF734FF04F114006FF00101257700F09A
:1017300071FC04F14C0084F854506FF00101BDE8D5
:10174000384000F067BC38BD10B5012104460430B4
:10175000FFF71CFF0023237784F8543010BD0000EE
:1017600038B504460025143001F0CCFD04F14C00DE
:10177000257701F09BFE201D84F854500121FFF7CE
:1017800005FF2046BDE83840FFF752BF90F85C30B7
:1017900003F06003202B06D190F85D200023212A5E
:1017A00003D81F2A06D800207047222AFBD1C0E99F
:1017B000143303E0034A0265072242658365012072
:1017C000704700BF38220220D0F8A43837B51A6815
:1017D0000446117804291AD1017C022917D11979FC
:1017E000012312898B40134211D100F14C05284688
:1017F00001F01CFF58B101A9284601F063FED4F89E
:10180000A4480246019B2179206800F0BBF803B090
:1018100030BD000000EB8103F0B51E6A85B00446C0
:101820000D46FEB1302383F3118804EB8507301D8C
:101830000821FFF7ABFEFB6806F14C005B691B68F3
:101840001BB1019001F04CFE019803A901F03AFE92
:10185000024648B1039B2946204600F093F8002336
:1018600083F3118805B0F0BDFB685A691268002A3D
:10187000F5D01B8A013B1340F1D104F15C02EAE789
:101880000D3138B550F82140DCB1302383F3118895
:10189000D4F8A4281368527903EB8203DB689B69B0
:1018A0005D6845B104216018FFF770FE294604F118
:1018B000140001F03DFD2046FFF7BAFE002383F33C
:1018C000118838BD7047000001F08AB80123282232
:1018D000002110B5044600F8243BFFF783FA0023EB
:1018E000C4E9013310BD000038B50446302383F34A
:1018F000118800254160C0E90355C0E90555C0E9DC
:10190000075501F07DF80223237085F311882846DE
:1019100038BD000070B500EB8103054650690E46E6
:101920001446DA6018B110220021FFF75BFAA069B3
:1019300018B110220021FFF755FA31462846BDE8BC
:10194000704001F027B90000826802F00112826045
:101950000022C0E90422C0E90622026201F0A6B911
:10196000F0B4012500EB810447898D40E4683D43D4
:10197000A469458123600023A2606360F0BC01F08C
:10198000C1B90000F0B4012500EB810407898D4046
:10199000E4683D436469058123600023A2606360BD
:1019A000F0BC01F03BBA000070B5022300250446EC
:1019B00003704566056280F84C50C0E90255C0E9E5
:1019C0000455C0E9065501F081F863681B6823B12E
:1019D00029462046BDE87040184770BD0378052BA6
:1019E00010B504460AD080F86830052303704368B8
:1019F0001B680BB1042198470023A36010BD0000B1
:101A00000178052906D190F86820436802701B68A8
:101A100003B118477047000070B590F84C30044689
:101A200013B1002380F84C3004F15C02204601F031
:101A30005FF963689B68B3B994F85C3013F0600594
:101A400035D00021204601F011FC0021204601F094
:101A500003FC63681B6813B10621204698470623E0
:101A600084F84C3070BD204698470028E4D0B4F884
:101A70006230626D9A4288BF636594F95C30656D2F
:101A8000002B4FF0300380F20381002D00F0F28034
:101A9000092284F84C2083F3118800212046D4E9E0
:101AA0001423FFF76FFF002383F31188DAE794F81C
:101AB0005D2003F07F0343EA022340F202329342A7
:101AC00000F0C58021D8B3F5807F48D00DD8012B18
:101AD0003FD0022B00F09380002BB2D104F16402BE
:101AE000226502226265A365C1E7B3F5817F00F03C
:101AF0009B80B3F5407FA4D194F85E30012BA0D138
:101B0000B4F8643043F0020332E0B3F5006F4DD017
:101B100017D8B3F5A06F31D0A3F5C063012B90D8CF
:101B20006368204694F85E205E6894F85F10B4F80D
:101B30006030B047002884D043682365036863653C
:101B40001AE0B3F5106F36D040F6024293427FF4AC
:101B500078AF5C4B2365022363650023C3E794F8E9
:101B60005E30012B7FF46DAFB4F8643023F00203D4
:101B7000A4F86430C4E91455A56578E7B4F85C307E
:101B8000B3F5A06F0ED194F85E30204684F866302D
:101B900000F0F4FF63681B6813B1012120469847E9
:101BA000032323700023C4E914339CE704F1670383
:101BB00023650123C3E72378042B10D1302383F35B
:101BC00011882046FFF7C0FE85F311880321636862
:101BD00084F8675021701B680BB12046984794F831
:101BE0005E30002BDED084F86730042323706368F6
:101BF0001B68002BD6D0022120469847D2E794F8E4
:101C0000603020461D0603F00F010AD501F062F88E
:101C1000012804D002287FF414AF2B4B9AE72B4BFA
:101C200098E701F049F8F3E794F85E30002B7FF471
:101C300008AF94F8603013F00F01B3D01A062046B5
:101C400002D501F027FBADE701F01AFBAAE794F8F3
:101C50005E30002B7FF4F5AE94F8603013F00F0186
:101C6000A0D01B06204602D501F000FB9AE701F048
:101C7000F3FA97E7142284F84C2083F311882B465B
:101C80002A4629462046FFF76BFE85F31188E9E6D0
:101C90005DB1152284F84C2083F311880021204681
:101CA000D4E91423FFF75CFEFDE60B2284F84C20F8
:101CB00083F311882B462A4629462046FFF762FE09
:101CC000E3E700BFE43D0008DC3D0008E03D00081C
:101CD00038B590F84C300446002B3ED0063BDAB2C3
:101CE0000F2A34D80F2B32D8DFE803F03731310810
:101CF000223231313131313131313737456DB0F840
:101D000062309D4214D2C3681B8AB5FBF3F203FB19
:101D100012556DB9302383F311882B462A46294684
:101D2000FFF730FE85F311880A2384F84C300EE06B
:101D3000142384F84C30302383F311880023204689
:101D40001A461946FFF70CFE002383F3118838BDAD
:101D5000836D03B198470023E7E70021204601F097
:101D600085FA0021204601F077FA63681B6813B1F9
:101D70000621204698470623D7E7000010B590F8C3
:101D80004C300446142B29D017D8062B05D001D887
:101D90001BB110BD093B022BFBD80021204601F0EE
:101DA00065FA0021204601F057FA63681B6813B1F9
:101DB000062120469847062319E0152BE9D10B236D
:101DC00080F84C30302383F3118800231A461946DB
:101DD000FFF7D8FD002383F31188DAE7C3689B6916
:101DE0005B68002BD5D1836D03B19847002384F83D
:101DF0004C30CEE700238268037503691B6899683D
:101E00009142FBD25A68036042601060586070478C
:101E100000238268037503691B6899689142FBD8A7
:101E20005A680360426010605860704708B5084601
:101E3000302383F311880B7D032B05D0042B0DD0A9
:101E40002BB983F3118808BD8B6900221A604FF00B
:101E5000FF338361FFF7CEFF0023F2E7D1E90032C1
:101E600013605A60F3E70000FFF7C4BF054BD96861
:101E700008751868026853601A600122D8600275FC
:101E8000FEF750BAB02802200C4B30B5DD684B1C71
:101E900087B004460FD02B46094A684600F04EF939
:101EA0002046FFF7E3FF009B13B1684600F050F9AE
:101EB000A86907B030BDFFF7D9FFF9E7B0280220C5
:101EC0002D1E0008044B1A68DB6890689B689842D6
:101ED00094BF002001207047B0280220084B10B5A5
:101EE0001C68D868226853601A600122DC60227581
:101EF000FFF78EFF01462046BDE81040FEF712BAFC
:101F0000B028022038B5074C0123002506490748B0
:101F10002370656001F0C2FB0223237085F31188F2
:101F200038BD00BF182B0220EC3D0008B02802206D
:101F300000F044B9034A516853685B1A9842FBD8D1
:101F4000704700BF001000E08B6002230861084664
:101F50008B8270478368A3F1840243F8142C0269D2
:101F600043F8442C426943F8402C094A43F8242C96
:101F7000C268A3F1200043F8182C022203F80C2CAD
:101F8000002203F80B2C034A43F8102C704700BFC3
:101F90003D030008B028022008B5FFF7DBFFBDE8CD
:101FA0000840FFF761BF0000024BDB6898610F201B
:101FB000FFF75CBFB0280220302383F31188FFF7BE
:101FC000F3BF000008B50146302383F311880820D1
:101FD000FFF75AFF002383F3118808BD064BDB6827
:101FE00039B1426818605A60136043600420FFF7FB
:101FF0004BBF4FF0FF307047B02802200368984273
:1020000006D01A680260506018469961FFF72CBF2D
:102010007047000038B504460D462068844200D160
:1020200038BD036823605C608561FFF71DFFF4E73E
:10203000036810B59C68A2420CD85C688A600B608B
:102040004C602160596099688A1A9A604FF0FF339A
:10205000836010BD121B1B68ECE700000A2938BF23
:102060000A2170B504460D460A26601901F010FBDE
:1020700001F0FCFA041BA54203D8751C04462E4649
:10208000F3E70A2E04D90120BDE8704001F046BBF9
:1020900070BD0000F8B5144B0D460A2A4FF00A0730
:1020A000D96103F11001826038BF0A2241601969C9
:1020B0001446016048601861A81801F0DBFA01F0CD
:1020C000D5FA431B0646A34206D37C1C2819274693
:1020D000354601F0DDFAF2E70A2F04D90120BDE808
:1020E000F84001F01BBBF8BDB0280220F8B5064649
:1020F0000D4601F0BBFA0F4A134653F8107F9F427A
:1021000006D12A4601463046BDE8F840FFF7C2BF77
:10211000D169BB68441A2C1928BF2C46A34202D9A6
:102120002946FFF79BFF224631460348BDE8F840A9
:10213000FFF77EBFB0280220C0280220C0E9032399
:10214000002310B45DF8044B4361FFF7CFBF0000DC
:1021500010B5194C236998420DD08168D0E900323E
:1021600013605A609A680A449A60002303604FF033
:10217000FF33A36110BD0268234643F8102F53605C
:102180000022026022699A4203D1BDE8104001F0AA
:1021900079BA936881680B44936001F067FA226909
:1021A000E1699268441AA242E4D91144BDE81040A2
:1021B000091AFFF753BF00BFB02802202DE9F047EE
:1021C000DFF8BC8008F110072C4ED8F8105001F051
:1021D0004DFAD8F81C40AA68031B9A423ED8144412
:1021E0004FF00009D5E90032C8F81C4013605A606E
:1021F000C5F80090D8F81030B34201D101F042FA8E
:1022000089F31188D5E9033128469847302383F3B1
:1022100011886B69002BD8D001F028FA6A69A0EB0D
:10222000040982464A450DD2022001F077FA0022C5
:10223000D8F81030B34208D151462846BDE8F047DF
:10224000FFF728BF121A2244F2E712EB09092946C8
:10225000384638BF4A46FFF7EBFEB5E7D8F81030EE
:10226000B34208D01444C8F81C00211AA960BDE884
:10227000F047FFF7F3BEBDE8F08700BFC02802209B
:10228000B028022000207047FEE7000070470000E1
:102290004FF0FF307047000002290CD0032904D012
:1022A0000129074818BF00207047032A05D80548B0
:1022B00000EBC2007047044870470020704700BF21
:1022C000C43E000848220220783E000870B59AB04B
:1022D00005460846144601A900F0C2F801A8FEF719
:1022E00079FD431C0022C6B25B001046C5E90034EC
:1022F00023700323023404F8013C01ABD1B2023451
:102300008E4201D81AB070BD13F8011B013204F8D7
:10231000010C04F8021CF1E708B5302383F311889F
:102320000348FFF751FA002383F3118808BD00BF6B
:10233000202B022090F85C3003F01F02012A07D105
:1023400090F85D200B2A03D10023C0E9143315E077
:1023500003F06003202B08D1B0F860302BB990F85F
:102360005D20212A03D81F2A04D8FFF70FBA222A9A
:10237000EBD0FAE7034A0265072242658365012034
:10238000704700BF3F22022007B5052917D8DFE8B4
:1023900001F0191603191920302383F31188104A0C
:1023A00001210190FFF7B6FA019802210D4AFFF7CB
:1023B000B1FA0D48FFF7D4F9002383F3118803B075
:1023C0005DF804FB302383F311880748FFF79EF97B
:1023D000F2E7302383F311880348FFF7B5F9EBE701
:1023E000183E00083C3E0008202B022038B50C4D5A
:1023F0000C4C2A460C4904F10800FFF767FF05F171
:10240000CA0204F110000949FFF760FF05F5CA721E
:1024100004F118000649BDE83840FFF757BF00BF78
:10242000F833022048220220F83D0008023E00084E
:102430000D3E000870B5044608460D46FEF7CAFC7E
:10244000C6B22046013403780BB9184670BD324637
:102450002946FEF7ABFC0028F3D10120F6E7000087
:102460002DE9F84F05460C46FEF7B4FC2C49C6B2E0
:102470002846FFF7DFFF08B10236F6B229492846A1
:10248000FFF7D8FF08B11036F6B2632E0DD8DFF88B
:102490009080DFF89090244FDFF894A0DFF894B09C
:1024A0002E7846B92670BDE8F88F29462046BDE84B
:1024B000F84F01F041BC252E2ED107224146284677
:1024C000FEF774FC70B9DBF800300735093444F8C6
:1024D000093CDBF8043044F8053C9BF8083004F86C
:1024E000013CDDE7082249462846FEF75FFC98B923
:1024F000A21C0E4B197802320909C95D02F8041CAE
:1025000013F8011B01F00F015345C95D02F8031CCC
:10251000F0D118340835C3E7013504F8016BBFE783
:10252000E43E00080D3E0008F63E000820F4F01FCF
:102530002CF4F01FEC3E0008BFF34F8F024AD36823
:10254000DB03FCD4704700BF003C024008B5074BDA
:102550001B7853B9FFF7F0FF054B1A69002A04DA1C
:10256000044A5A6002F188325A6008BD5636022089
:10257000003C02402301674508B5054B1B7833B981
:10258000FFF7DAFF034A136943F00043136108BD04
:1025900056360220003C02400B28F0B516D80C4CF1
:1025A0000C4923787BB90E460B4D0C234FF000628B
:1025B000013B55F8047B46F8042B13F0FF033A4423
:1025C000F6D10123237051F82000F0BD0020FCE774
:1025D0008836022058360220083F0008014B53F885
:1025E00020007047083F00080C2070470B2810B5EA
:1025F000044601D9002010BDFFF7CEFF064B53F86B
:1026000024301844C21A0BB90120F4E712680132D1
:10261000F0D1043BF6E700BF083F00080B2810B5D7
:10262000044621D8FFF788FFFFF790FF0F4AF323F6
:10263000D360C300DBB243F4007343F002031361C1
:10264000136943F480331361FFF776FFFFF7A4FFAC
:10265000074B53F8241000F0D9F82046FFF78CFF01
:10266000BDE81040FFF7C2BF002010BD003C024093
:10267000083F0008F8B512F00103144642D1821851
:10268000B2F1026F57D82D4B1B6813F0010352D0E3
:10269000FFF75CFF2A4DF32340F20127EB60FFF7C1
:1026A0004BFF032C15D824F00104401A40F2011707
:1026B0006618234CB14200EB0105236924D123F0B5
:1026C000010301202361FFF757FFF8BD043C0430EC
:1026D000E7E78307E7D12B6923F440732B612B696C
:1026E0003B432B6151F8046B0660BFF34F8FFFF73C
:1026F00023FF03689E42E9D02B6923F001032B617D
:10270000FFF73AFF0020E0E723F4407323612369D9
:102710003B4323610B882B80BFF34F8FFFF70CFFE8
:102720002D88ADB231F8023BAB42C3D0236923F010
:1027300001032361E4E71846C7E700BF0038024001
:10274000003C0240084908B50B7828B11BB9FFF7D7
:10275000FDFE01230B7008BD002BFCD00870BDE806
:102760000840FFF709BF00BF563602200244074B5E
:10277000D2B210B5904200D110BD441C00B253F843
:10278000200041F8040BE0B2F4E700BF50280040FD
:102790000F4B30B51C6F240407D41C6F44F4007435
:1027A0001C671C6F44F400441C670A4C02442368F5
:1027B000D2B243F480732360074B904200D130BD06
:1027C000441C51F8045B00B243F82050E0B2F4E737
:1027D00000380240007000405028004007B5012238
:1027E00001A90020FFF7C2FF019803B05DF804FBC8
:1027F00013B50446FFF7F2FFA04205D0012201A95C
:1028000000200194FFF7C4FF02B010BD0144BFF3E4
:102810004F8F064B884204D3BFF34F8FBFF36F8FA8
:102820007047C3F85C022030F4E700BF00ED00E021
:10283000034B1A681AB9034AD2F874281A60704711
:102840008C3602200030024008B5FFF7F1FF024B42
:102850001868C0F3407008BD8C36022070B5BFF315
:102860004F8FBFF36F8F1A4A0021C2F85012BFF387
:102870004F8FBFF36F8F536943F400335361BFF33E
:102880004F8FBFF36F8FC2F88410BFF34F8FD2F812
:10289000803043F6E074C3F3C900C3F34E335B01E9
:1028A00003EA0406014646EA81750139C2F860521E
:1028B000F9D2203B13F1200FF2D1BFF34F8F5369B0
:1028C00043F480335361BFF34F8FBFF36F8F70BDFD
:1028D00000ED00E0FEE70000214B2248224A70B5DF
:1028E000904237D3214BC11EDA1C121A22F0030288
:1028F0008B4238BF00220021FEF774FA1C4A0023E5
:10290000C2F88430BFF34F8FD2F8803043F6E074C2
:10291000C3F3C900C3F34E335B0103EA0406014667
:1029200046EA81750139C2F86C52F9D2203B13F1A5
:10293000200FF2D1BFF34F8FBFF36F8FBFF34F8FD5
:10294000BFF36F8F0023C2F85032BFF34F8FBFF336
:102950006F8F70BD53F8041B40F8041BC0E700BF25
:1029600010410008A0370220A0370220A037022023
:1029700000ED00E070B5D0E91B4300224FF0FF35B9
:102980009E6804EB42135101D3F80009002805DAD0
:10299000D3F8000940F08040C3F80009D3F8000BD9
:1029A000002805DAD3F8000B40F08040C3F8000B94
:1029B000013263189642C3F80859C3F8085BE0D2A5
:1029C0004FF00113C4F81C3870BD0000890141F0BC
:1029D0002001016103699B06FCD41220FFF7AABA0B
:1029E00010B5054C2046FEF771FF4FF0A043E3669B
:1029F000024B236710BD00BF903602205C3F0008E9
:102A000070B503780546012B50D12A4BC46E98420D
:102A10001BD1294B0E2143205A6B42F080025A638E
:102A20005A6D42F080025A655A6D5A6942F080022E
:102A30005A615A6922F080025A615B6900F034FCE5
:102A40001E4BE3601E4BC4F800380023EE6EC4F842
:102A5000003EC02323604FF40413A3633369002BAB
:102A6000FCDA01230C203361FFF764FA3369DB07DA
:102A7000FCD41220FFF75EFA3369002BFCDA002643
:102A80002846A660FFF776FF6B68C4F81068DB681D
:102A9000C4F81468C4F81C684BB90A4BA3614FF022
:102AA000FF336361A36843F00103A36070BD064B6D
:102AB000F4E700BF90360220003802404014004086
:102AC00003002002003C30C0083C30C0F8B5C46EA2
:102AD000054600214FF000662046FFF777FF296F7B
:102AE00000234FF001128F684FF0FF30C4F83438E4
:102AF000C4F81C2804EB431201339F42C2F800695A
:102B0000C2F8006BC2F80809C2F8080BF2D20B68D1
:102B1000EA6E6B67636210231361166916F0100684
:102B2000FBD11220FFF706FAD4F8003823F4FE6335
:102B3000C4F80038A36943F4402343F01003A361B1
:102B40000923C4F81038C4F814380A4BEB604FF06E
:102B5000C043C4F8103B084BC4F8003BC4F81069EC
:102B6000C4F800396B6F03F1100243F480136A67F5
:102B7000A362F8BD383F000840800010C26E90F894
:102B80006610D2F8003823F4FE6343EA0113C2F85A
:102B9000003870472DE9F84300EB8103C56E0C4601
:102BA0008046DA680FFA81F94801166806F00306D4
:102BB000731E022B05EB41134FF0000194BFB604C6
:102BC000384EC3F8101B4FF0010104F1100398BFF9
:102BD00006F1805601FA03F3916998BF06F50046A5
:102BE00000293AD0578A04F15801374349016F5000
:102BF000D5F81C180B430021C5F81C382B180127E9
:102C0000C3F81019A7405369611E9BB3138A928BB6
:102C10009B08012A88BF5343D8F87420981842EAC9
:102C2000034301F140022146C8F87400284605EB31
:102C300082025360FFF7CAFE08EB8900C3681B8A53
:102C400043EA845348341E4364012E51D5F81C389E
:102C50001F43C5F81C78BDE8F88305EB4917D7F882
:102C6000001B21F40041C7F8001BD5F81C1821EA0D
:102C70000303C0E704F13F030B4A2846214605EB56
:102C800083035A60FFF7A2FE05EB4910D0F8003924
:102C900023F40043C0F80039D5F81C3823EA0707AD
:102CA000D7E700BF0080001000040002026F126826
:102CB0004267FFF75FBE00005831C36E49015B58A1
:102CC00013F4004004D013F4001F0CBF02200120B5
:102CD000704700004831C36E49015B5813F400404F
:102CE00004D013F4001F0CBF022001207047000025
:102CF00000EB8101CB68196A0B6813604B68536065
:102D00007047000000EB810330B5DD68AA691368E5
:102D1000D36019B9402B84BF402313606B8A1468B9
:102D2000C26E1C4402EB4110013C09B2B4FBF3F447
:102D30006343033323F0030343EAC44343F0C04334
:102D4000C0F8103B2B6803F00303012B0ED1D2F81F
:102D5000083802EB411013F4807FD0F8003B14BF19
:102D600043F0805343F00053C0F8003B02EB4112A4
:102D7000D2F8003B43F00443C2F8003B30BD0000F2
:102D80002DE9F041244D0446EE6E06EB4013D3F8D6
:102D9000087B3807C3F8087B0AD5D6F8143819071A
:102DA00006D505EB840321462846DB685B68984717
:102DB000FA071FD5D6F81438DB071BD505EB8403BB
:102DC000D968CCB98B69488A5A68B2FBF0F600FB27
:102DD00016228AB91868DA6890420DD2121AC3E92D
:102DE0000024302383F311880B482146FFF78AFF24
:102DF00084F31188BDE8F081012303FA04F26B89A2
:102E000023EA02036B81CB68002BF3D021460248F2
:102E1000BDE8F041184700BF9036022000EB810367
:102E20004A0170B5DD68C36E6C692668E66056BB02
:102E30001A444FF40020C2F810092A6802F0030275
:102E4000012A0AB20ED1D3F8080803EB421410F499
:102E5000807FD4F8000914BF40F0805040F000504B
:102E6000C4F8000903EB4212D2F8000940F0044014
:102E7000C2F800090122D3F8340802FA01F1014333
:102E8000C3F8341870BD19B9402E84BF40202060AB
:102E900020681A442E8A8419013CB4FBF6F440EAF7
:102EA000C44040F00050C6E72DE9F8433B4D0446CE
:102EB0004701EE6E06EB4013D3F8088918F0010FB6
:102EC000C3F808891AD0D6F81038DB0716D505EBF9
:102ED0008003D9684B691868DA68904230D2121AB8
:102EE0004FF000091A60C3F80490302383F311886F
:102EF00021462846FFF792FF89F3118818F0800FCA
:102F00001CD0D6F834380126A640334216D005EB43
:102F100084030134ED6ED3F80CC0E4B22F44DCF826
:102F2000142005EB0434D2F800E05168714515D344
:102F3000D5F8343823EA0606C5F83468BDE8F883C6
:102F4000012303FA04F22B8923EA02032B818B6805
:102F5000002BD3D0214628469847CFE7AEEB01039C
:102F6000BCF81000834228BF0346D7F8180980B286
:102F7000B3EB800FE2D89068A0F1040959F8048FF0
:102F8000C4F80080A0EB09089844B8F1040FF5D804
:102F900018440B4490605360C7E700BF903602208E
:102FA0002DE9F74FA44CE56E6E69AB691E4016F42F
:102FB00080586E6107D02046FEF7F6FC03B0BDE8EE
:102FC000F04F00F069BC002E12DAD5F8003E9B07E6
:102FD00005D0D5F8003E23F00303C5F8003ED5F830
:102FE0000438954823F00103C5F80438FEF708FDBE
:102FF000370505D59048FFF7BDFC8F48FEF7EEFC7E
:10300000B0040CD5D5F8083813F0060FEB6823F49C
:1030100070530CBF43F4105343F4A053EB603107DB
:103020001BD56368DB681BB9AB6923F00803AB6190
:103030002378052B0CD1D5F8003E9A0705D0D5F89A
:10304000003E23F00303C5F8003E7B48FEF7D8FCA2
:103050006368DB680BB178489847F30200F1898018
:10306000B70227D5D4F86C9000274FF0010ADFF89B
:10307000C8B109EB4712D2F8003B03F44023B3F583
:10308000802F11D1D2F8003B002B0DDA62890AFAA9
:1030900007F322EA0303638104EB8703DB68DB6841
:1030A00013B13946584698470137236FFFB29B68E2
:1030B0009F42DED9F00617D5E76E3A6AC2F30A10CE
:1030C00002F00F0302F4F012B2F5802F00F09880A6
:1030D000B2F5402F08D104EB8303002207F5805797
:1030E000DB681B6A90427ED13303D5F818481DD5A2
:1030F000E70302D50020FFF743FEA50302D5012018
:10310000FFF73EFE600302D50220FFF739FE2103E0
:1031100002D50320FFF734FEE20202D50420FFF7B8
:103120002FFEA30202D50520FFF72AFE77037FF5C5
:1031300045AFE60702D50020FFF7B6FEA50702D58A
:103140000120FFF7B1FE600702D50220FFF7ACFEB9
:10315000210702D50320FFF7A7FEE20602D50420CF
:10316000FFF7A2FEA3067FF529AF0520FFF79CFE1F
:1031700024E7E36E00274FF00109DFF8BCA00193BC
:10318000236F5FFA87FB9B689B453FF669AF019B06
:1031900003EB4B13D3F8001901F44021B1F5802F54
:1031A0001FD1D3F8001900291BDAD3F8001941F018
:1031B0009041C3F80019D3F800190029FBDB5946E8
:1031C000E06EFFF703FC218909FA0BF321EA030300
:1031D000238104EB8B03DB689B6813B1594650468F
:1031E00098470137CCE7910701D1D7F80080072A2B
:1031F00002F101029CBF03F8018B4FEA182871E726
:10320000023307F5805704EB83025268D2F818C0E6
:10321000DCF80820DCE9001CA1EB0C0C0021884242
:103220000CD104EB830463689B699A6802449A603A
:103230005A6802445A6057E79036022011F0030F93
:1032400001D1D7F800808C4501F1010184BF02F85B
:10325000018B4FEA1828E2E7C36E03EB4111D1F866
:10326000003B43F40013C1F8003B7047C36E03EB0F
:103270004111D1F8003943F40013C1F80039704707
:10328000C36E03EB4111D1F8003B23F40013C1F8E6
:10329000003B7047C36E03EB4111D1F8003923F4B2
:1032A0000013C1F800397047090100F160430122A1
:1032B00003F56143C9B283F8001300F01F039A407D
:1032C00043099B0003F1604303F56143C3F8802188
:1032D0001A60704730B50433039C0172002104FB6F
:1032E0000325C160C0E90653049B0363059BC0E945
:1032F0000000C0E90422C0E90842C0E90A114363A2
:1033000030BD00000022416AC260C0E90411C0E97A
:103310000A226FF00101FEF77DBE0000D0E9043201
:10332000934201D1C2680AB9181D70470020704746
:10333000036919600021C2680132C260C269134486
:1033400082699342036124BF436A0361FEF756BE5C
:1033500038B504460D46E3683BB162690020131D91
:103360001268A3621344E36207E0237A33B9294663
:103370002046FEF733FE0028EDDA38BD6FF001007D
:10338000FBE70000C368C269013BC36043691344A3
:1033900082699342436124BF436A4361002383628D
:1033A000036B03B11847704770B53023044683F3AD
:1033B0001188866A3EB9FFF7CBFF054618B186F340
:1033C0001188284670BDA36AE26A13F8015B934234
:1033D000A36202D32046FFF7D5FF002383F31188B1
:1033E000EFE700002DE9F84F04460E4617469846D1
:1033F0004FF0300989F311880025AA46D4F828B087
:10340000BBF1000F09D141462046FFF7A1FF20B1D3
:103410008BF311882846BDE8F88FD4E90A12A7EB90
:10342000050B521A934528BF9346BBF1400F1BD999
:10343000334601F1400251F8040B914243F8040B6A
:10344000F9D1A36A403640354033A362D4E90A2358
:103450009A4202D32046FFF795FF8AF31188BD42B6
:10346000D8D289F31188C9E730465A46FDF794FC53
:10347000A36A5E445D445B44A362E7E710B5029C27
:103480000433017203FB0421C460C0E90613002366
:10349000C0E90A33039B0363049BC0E90000C0E951
:1034A0000422C0E90842436310BD0000026A6FF0C5
:1034B0000101C260426AC0E904220022C0E90A2276
:1034C000FEF7A8BDD0E904239A4201D1C26822B90F
:1034D000184650F8043B0B60704700231846FAE783
:1034E000C3680021C2690133C36043691344826920
:1034F0009342436124BF436A4361FEF77FBD0000EE
:1035000038B504460D46E3683BB1236900201A1D17
:10351000A262E2691344E36207E0237A33B92946E1
:103520002046FEF75BFD0028EDDA38BD6FF00100A4
:10353000FBE7000003691960C268013AC260C26912
:10354000134482699342036124BF436A03610023E9
:103550008362036B03B118477047000070B53023D6
:103560000D460446114683F31188866A2EB9FFF78B
:10357000C7FF10B186F3118870BDA36A1D70A36ADE
:10358000E26A01339342A36204D3E169204604391D
:10359000FFF7D0FF002080F31188EDE72DE9F84F09
:1035A00004460D46904699464FF0300A8AF311883A
:1035B0000026B346A76A4FB949462046FFF7A0FF49
:1035C00020B187F311883046BDE8F88FD4E90A07A7
:1035D0003A1AA8EB0607974228BF1746402F1BD977
:1035E00005F1400355F8042B9D4240F8042BF9D116
:1035F000A36A40364033A362D4E90A239A4204D333
:10360000E16920460439FFF795FF8BF311884645A1
:10361000D9D28AF31188CDE729463A46FDF7BCFB9B
:10362000A36A3D443E443B44A362E5E7D0E904235A
:103630009A4217D1C3689BB1836A8BB1043B9B1A32
:103640000ED01360C368013BC360C3691A44836929
:103650009A42026124BF436A03610023836201230B
:10366000184670470023FBE700F040B94FF0804355
:10367000586A70474FF08043002258631A61022253
:10368000DA6070474FF080430022DA607047000034
:103690004FF0804358637047FEE7000070B51B4B46
:1036A0000025044686B058600E468562016300F02E
:1036B000CBF804F11003A560E562C4E904334FF0D0
:1036C000FF33C4E90044C4E90635FFF7CFFF2B46BA
:1036D000024604F134012046C4E9082380230C4A41
:1036E0002565FEF731FC01230A4AE060009203756C
:1036F000684672680192B268CDE90223064BCDE9B3
:103700000435FEF749FC06B070BD00BF182B02203F
:10371000683F00086D3F000899360008024AD36AE6
:103720001843D062704700BFB02802204B68436046
:103730008B688360CB68C3600B6943614B6903622C
:103740008B6943620B6803607047000008B52C4B1F
:1037500040F2FF712B481A690A431A611A6922F470
:10376000FF6222F007021A611A691A6B0A431A6390
:103770001A6D0A431A65244A1B6D1146FFF7D6FFDE
:1037800000F5806002F11C01FFF7D0FF00F58060BA
:1037900002F13801FFF7CAFF00F5806002F1540121
:1037A000FFF7C4FF00F5806002F17001FFF7BEFF74
:1037B00000F5806002F18C01FFF7B8FF00F5806032
:1037C00002F1A801FFF7B2FF00F5806002F1C40129
:1037D000FFF7ACFF00F5806002F1E001FFF7A6FF04
:1037E00000F5806002F1FC01FFF7A0FF02F58C718B
:1037F00000F58060FFF79AFFBDE8084000F0ECB8E4
:103800000038024000000240743F000808B500F094
:1038100073FAFEF777FBFFF70BF8BDE80840FEF7F9
:10382000E5BD000070470000EFF3098305496833E8
:103830004A6B22F001024A6383F30988002383F371
:103840001188704700EF00E0302080F3118862B6E5
:103850000D4B0E4AD96821F4E0610904090C0A43B2
:103860000B49DA60D3F8FC2042F08072C3F8FC20E8
:10387000084AC2F8B01F116841F00101116020220E
:10388000DA7783F82200704700ED00E00003FA05C4
:1038900055CEACC5001000E0302310B583F311887D
:1038A0000E4B5B6813F4006314D0F1EE103AEFF3A3
:1038B00009844FF08073683CE361094BDB6B23663E
:1038C00084F30988FEF7FEFA10B1064BA36110BD20
:1038D000054BFBE783F31188F9E700BF00ED00E03B
:1038E00000EF00E04F030008520300080F4B1A6C72
:1038F00042F001021A641A6E42F001021A660C4A82
:103900001B6E936843F0010393604FF080436B227A
:103910009A624FF0FF32DA6200229A615A63DA60EB
:103920005A6001225A611A60704700BF0038024095
:10393000002004E04FF0804208B51169D3680B40C5
:10394000D9B29B076FEA0101116107D5302383F3D8
:103950001188FEF7EDFA002383F3118808BD0000FB
:103960001B4B4FF0FF3000211A696FEA42526FEA99
:1039700052521A611A69C2F30A021A611A695A6923
:1039800058615A6959615A691A6A62F080521A621A
:103990001A6A02F080521A621A6A5A6A58625A6A9D
:1039A00059625A6A0B4A106840F480701060186FB0
:1039B00000F44070B0F5007F03D04FF480301867FA
:1039C0001967536823F40073536000F069B900BFAE
:1039D0000038024000700040364B4FF44041364AF8
:1039E0001A64364A11601A6842F001021A601A68B5
:1039F0009207FCD59A6822F003029A602D4B9A68D0
:103A000012F00C02FBD1196801F0F90119609A60FB
:103A10001A6842F480321A601A689003FCD55A6F13
:103A200042F001025A67234B5A6F9107FCD5244A92
:103A30005A601A6842F080721A60204B5A68520429
:103A4000FCD51A6842F480321A605A68D003FCD55B
:103A50001A6842F400321A60184A53689903FCD578
:103A6000144B1A689201FCD5164A9A6040F2011272
:103A7000C3F88C200022C3F8902040F20733124A8A
:103A80001360136803F00F03072BFAD1094B9A68F0
:103A900042F002029A609A6802F00C02082AFAD1F7
:103AA0005A6C42F480425A645A6E42F480425A661A
:103AB0005B6E704700380240000400100070004048
:103AC000106C400900948838003C0240074A08B551
:103AD000536903F00103536123B1054A13680BB125
:103AE00050689847BDE80840FFF7D6BE003C01404B
:103AF00020370220074A08B5536903F002035361D7
:103B000023B1054A93680BB1D0689847BDE80840D7
:103B1000FFF7C2BE003C014020370220074A08B52B
:103B2000536903F00403536123B1054A13690BB1D0
:103B300050699847BDE80840FFF7AEBE003C014021
:103B400020370220074A08B5536903F00803536180
:103B500023B1054A93690BB1D0699847BDE8084085
:103B6000FFF79ABE003C014020370220074A08B503
:103B7000536903F01003536123B1054A136A0BB173
:103B8000506A9847BDE80840FFF786BE003C0140F8
:103B900020370220164B10B55C6904F478725A6124
:103BA000A30604D5134A936A0BB1D06A98476006FE
:103BB00004D5104A136B0BB1506B9847210604D5FE
:103BC0000C4A936B0BB1D06B9847E20504D5094AB8
:103BD000136C0BB1506C9847A30504D5054A936C40
:103BE0000BB1D06C9847BDE81040FFF755BE00BF41
:103BF000003C014020370220194B10B55C6904F4E9
:103C00007C425A61620504D5164A136D0BB1506DA2
:103C10009847230504D5134A936D0BB1D06D98478F
:103C2000E00404D50F4A136E0BB1506E9847A104FF
:103C300004D50C4A936E0BB1D06E9847620404D53C
:103C4000084A136F0BB1506F9847230404D5054AF7
:103C5000936F0BB1D06F9847BDE81040FFF71CBEC3
:103C6000003C01402037022008B50348FDF742FA26
:103C7000BDE80840FFF710BED823022008B503486E
:103C8000FDF738FABDE80840FFF706BE44240220DD
:103C900008B5FFF74FFEBDE80840FFF7FDBD000087
:103CA000062108B50846FFF7FFFA06210720FFF7AF
:103CB000FBFA06210820FFF7F7FA06210920FFF793
:103CC000F3FA06210A20FFF7EFFA06211720FFF783
:103CD000EBFA06212820FFF7E7FA07211C20FFF75F
:103CE000E3FA0C212620FFF7DFFA0C215220BDE871
:103CF0000840FFF7D9BA000008B5FFF731FE00F021
:103D00000DF8FDF70FFCFDF7DFFDFDF7B7FCFFF742
:103D100089FDBDE80840FFF7A7BC00000023054A65
:103D200019460133102BC2E9001102F10802F8D143
:103D3000704700BF20370220034611F8012B03F81B
:103D4000012B002AF9D1704753544D3332463F3F7F
:103D50003F3F3F3F0053544D333246375B347C3551
:103D60005D780053544D333246375B367C375D788F
:103D700000000000009600000000000000000000AD
:103D80000000000000000000000000000000000033
:103D9000E5140008D11400080D150008F9140008F6
:103DA00005150008F1140008DD140008C914000806
:103DB0001915000800000000F9150008E5150008B5
:103DC000211600080D16000819160008051600082F
:103DD000F1150008DD1500082D1600080000000090
:103DE000010000000000000063300000E83D000812
:103DF00008290220182B02204172647550696C6FEB
:103E0000740025424F415244252D424C0025534514
:103E10005249414C25000000020000000000000053
:103E2000151800088118000840004000C83302201F
:103E3000D833022002000000000000000300000050
:103E400000000000C518000800000000100000007D
:103E5000E833022000000000010000000000000024
:103E600090360220010102008923000899220008EF
:103E7000352300081923000843000000803E000895
:103E800009024300020100C03209040000010202DD
:103E90000100052400100105240100010424020290
:103EA0000524060001070582030800FF090401003C
:103EB000020A000000070501024000000705810218
:103EC0004000000012000000CC3E0008120110016A
:103ED00002000040091241570002010203010000E4
:103EE0000403090425424F41524425004E45445FD6
:103EF00046435F5635003031323334353637383942
:103F0000414243444546000000800000008000001C
:103F1000008000000080000000000200000004009B
:103F20000000040000000400000004000000040081
:103F3000000004000000040000000000191A00083E
:103F4000D11C00087D1D00084000400008370220F9
:103F5000083702200100000018370220800000000E
:103F600040010000050000006D61696E0069646C2D
:103F7000650000000000802A00000000AAAAAAAA8A
:103F800000000024FFFF00000000000000A00A0065
:103F90000000000000000000AAAAAAAA0000000079
:103FA000FFFF0000000000000000000000500000C3
:103FB00000000000AAAAAAAA00000000FFFF00005B
:103FC0000000000000000000802900000000000048
:103FD000AAAAAAAA40160000FFFF000000707007FE
:103FE000000000004000020000000000AAAAAAAAE7
:103FF00000000100F7FF00000000000008000000C2
:104000000020000000000000AAAAAAAA00100000D8
:10401000FFFF00000000000800000000000000009A
:1040200000000000AAAAAAAA00000000FFFF0000EA
:104030000000000000000000000000000000000080
:10404000AAAAAAAA00000000FFFF000000000000CA
:10405000000000000000000000000000AAAAAAAAB8
:1040600000000000FFFF0000000000000000000052
:104070000000000000000000000000000000000040
:104080000000000000000000000000000000000030
:104090000000000000000000000000000000000020
:1040A00000000000000000003200000000000000DE
:1040B00000801F0000000000FF000000202B0220F5
:1040C000D82302204424022000000000483D0008BC
:1040D00049040000553D000851040000633D0008FC
:1040E0000096000000000800960000000008000094
:1040F00004000000E03E0008000000000000000096
:1041000000000000000000000000000000000000AF
:00000001FF
